:100000000C9454000C9471000C9471000C947100C9
:100010000C9471000C9471000C9471000C9471009C
:100020000C9471000C9471000C9471000C9471008C
:100030000C9471000C9471000C9482000C9471006B
:100040000C9471000C9471000C9471000C9471006C
:100050000C9471000C9471000C9471000C9471005C
:100060000C9471000C947100001F000000001F0030
:10007000001F101010101F00001F181818181F0064
:10008000001F1C1C1C1C1F00001F1E1E1E1E1F000C
:10009000001F1F1F1F1F1F0003070F1F0F07030055
:1000A000181C1E1F1E1C180011241FBECFEFD8E005
:1000B000DEBFCDBF12E0A0E0B1E0E0E4F2E102C0BB
:1000C00005900D92A432B107D9F722E0A4E2B2E084
:1000D00001C01D92A633B207E1F70E943A050C94C5
:1000E0001E090C94000010923502109234020E94F6
:1000F000F90260E080E00E94160360E18DE491E087
:100100000C94FF021F921FB61F9211248F938091AF
:1001100024028F5F80932402843129F481E080934C
:100120002502109224028F911F901FBE1F901895D8
:100130000F931F93CF93DF9300D000D000D0CDB7A3
:10014000DEB7809126028F5F809326028091340271
:10015000909135028230910509F477C090F4892B93
:1001600011F5CE0101960E94FB04882389F0898154
:100170008A3271F481E090E09093350280933402EA
:1001800007C08530910509F40CC1069709F44EC1EA
:1001900026960FB6F894DEBF0FBECDBFDF91CF918C
:1001A0001F910F9108958091300290913102A0919A
:1001B0003202B09133020097A105B10521F586B551
:1001C00090E00E94DA050E94D50569E170E00E9486
:1001D0005905FC01FF27EE0FFF1FE050FF4F808104
:1001E000918190932F0280932E020E94F90260E089
:1001F00080E00E94160365E080912E0290912F020C
:100200000E94FF020EC00A97A105B10550F080912F
:1002100026020E94F90282E090E0909335028093DA
:1002200034028091300290913102A0913202B0915B
:1002300033020196A11DB11D8093300290933102CB
:10024000A0933202B0933302A3CF109230021092E7
:1002500031021092320210923302CE0101960E94B6
:10026000FB04882361F161E080912D020E94160356
:1002700089810E945D0280912D028F5F80932D0203
:100280008981833209F067C020912B0230912C02C2
:10029000C9018F7D815491094A9788F420932A02DD
:1002A00060E0809129020E94160380912A020E9438
:1002B0005D0210922C0210922B0210922D0280915E
:1002C0002A02882309F464CF61E080E00E941603CB
:1002D00061E08AE292E00E94FF02E09128028091B0
:1002E0002E0290912F02E80FF92FF11D908180913D
:1002F0002A02981348C06091290280E00E941603E8
:1003000061E08AE292E00E94FF02809129028F5F01
:1003100080932902809128028F5F8093280261E0F8
:1003200080E00E9416036DE08EE591E00E94FF02DE
:1003300061E080E00E94160310922A028091290257
:10034000853039F585E090E0909335028093340252
:10035000809126021DCF90ED980F9A3008F0AFCF14
:1003600040912B0250912C029AE0949F9001959F0E
:10037000300D1124820F932F911DC09790932C0262
:1003800080932B029CCF809127028F5F809327025E
:10039000C6CF80912702833009F0FACE86E090E044
:1003A000EBCE8091300290913102A0913202B09157
:1003B00033020097A105B10509F050C00E94F9026F
:1003C00060E080E00E94160369E08CE691E00E9404
:1003D000FF0261E080E00E94160368E086E791E09A
:1003E0000E94FF021F921F928FE791E09F938F93CD
:1003F0008E010F5F1F4F1F930F930E94E505F801B9
:1004000001900020E9F73197BF01601B710BC80113
:100410000E94FF0262E082E891E00E94FF020F90DA
:100420000F900F900F900F900F90FBCE0E94F9024B
:100430008091300290913102A0913202B09133024A
:100440000097A105B10551F40E94F90260E080E037
:100450000E94160368E085E891E0D2CEC297A1051C
:10046000B10509F0DECE0E94F9021092300210921E
:100470003102109232021092330210923502109221
:100480003402CFCE14BC15BC16BC89EF87BD84B531
:10049000826084BD85B5856085BDEEE6F0E0808133
:1004A000826080837894089580912502882321F0CA
:1004B000109225020C949800089545B190E09C019B
:1004C00054E0359527955A95E1F72470BC01E6E094
:1004D00075956795EA95E1F76270262B497F242B85
:1004E00025B948B19C01F3E035952795FA95E1F7D8
:1004F0002670497F242B28B9599A589A25ED2A95B8
:10050000F1F700005898599825ED2A95F1F7000069
:1005100035B1282F2470AC015695479556954795CF
:100520004270242B397F232B25B928B1880F991FBE
:100530008670297F822B88B9599A589A85ED8A95B9
:10054000F1F700005898599825ED2A95F1F7000029
:10055000089545B190E09C0154E0359527955A9552
:10056000E1F72470BC01E6E075956795EA95E1F73F
:100570006270262B497F242B25B948B19C01F3E0FA
:1005800035952795FA95E1F72670497F242B28B9F0
:10059000589AEFE9FFE03197F1F700C00000589852
:1005A000EFE9FFE03197F1F700C0000035B1282FE7
:1005B0002470AC0156954795569547954270242B6B
:1005C000397F232B25B928B1880F991F8670297F81
:1005D000822B88B9589A8FE99FE00197F1F700C004
:1005E00000005898EFE9FFE03197F1F700C00000F4
:1005F000089581E00C94A90282E00C94A9020F9363
:100600001F93CF93DF93EC01062F080F192F111DB5
:10061000892B41F4DF91CF911F910F91089589911A
:100620000E945D02C017D107D1F7F4CF623041F0CC
:10063000633041F0613009F4805C80680C94A90259
:100640008C5EFBCF8C5AF9CF1F93CF93DF93EC01D5
:10065000862F642F0E94160310E0FE01E10FF11DAA
:100660008491811104C0DF91CF911F9108958491ED
:100670000E945D021F5FF1CFEF92FF920F931F93D5
:10068000CF93DF937C0188E0689FB0011124162F7F
:100690001064D0E0C0E0F701EC0FFD1F04918C2F37
:1006A000810F0E94A902802F0E945D022196C8300E
:1006B000D10589F7DF91CF911F910F91FF90EF90B6
:1006C00008950F931F93CF938FE59AEE0197F1F75B
:1006D00000C0000085B1897F85B988B1897F88B95C
:1006E0001BB884B1866084B987B1866087B98AB146
:1006F00083608AB985B1897F85B988B1866088B9F8
:10070000589A8FE99FE00197F1F700C000005898D0
:100710008FE99FE00197F1F700C0000085B1897F64
:1007200085B988B1866088B9589A8FE99FE00197AA
:10073000F1F700C0000058988FE99FE00197F1F7AA
:1007400000C0000085B1897F85B988B1897F846048
:1007500088B9589A8FE99FE00197F1F700C000002F
:1007600058988FE99FE00197F1F700C0000088E2F8
:100770000E94A9028CE00E94A90208E610E0C0E0F5
:100780006C2FCF5FC8010E943C03085F1F4FC83029
:10079000B9F7CF911F910F910895CF93DF93C82F91
:1007A000D0E0DC1303C0DF91CF9108958EE10E9469
:1007B000A902DF5FF6CFCF93DF93C82FD0E0DC1321
:1007C00003C0DF91CF91089588E10E94A902DF5F05
:1007D000F6CF8EE00C94A9028FE00C94A9028CE075
:1007E0000C94A90288E00C94A9020C94EF03CF9317
:1007F000DF93C82FD0E0DC1303C0DF91CF910895C1
:1008000080E10E94A902DF5FF6CFCF93DF93C82F6C
:10081000D0E0DC1303C0DF91CF91089584E10E9402
:10082000A902DF5FF6CFEF92FF920F931F93CF9352
:10083000DF9300D000D00F92CDB7DEB78C019B01C3
:1008400085E0E8E3F1E0DE01119601900D928A95D2
:10085000E1F7FE0136968AE0E82EF12C011511052C
:1008600051F4FE0131962F3F320771F005E010E0A0
:10087000021B130B0CC0C801B7010E9459058293DB
:100880008B01ECCF0F5F1F4F81918823D9F3053087
:10089000110564F00F900F900F900F900F90DF9163
:1008A000CF911F910F91FF90EF900895E1E0F0E05C
:1008B000EC0FFD1FE00FF11F8081805D0E945D0243
:1008C0000F5F1F4FE4CFCF92DF92FF920F931F93E2
:1008D000CF93DF93C42F489F9001112446E0429F9D
:1008E000C001439F900D112470E00E9459056B01D7
:1008F000CB0166E070E00E944505F82E05E010E0AF
:10090000D0E0DC1308C0DF91CF911F910F91FF90D1
:10091000DF90CF90089585E0C016D10630F4C8016D
:100920000597C816D90638F08F2D0E945D02DF5F4B
:100930000A5F1F4FE6CF80E0F8CF0E9461030E945C
:10094000F9020C94FC02DC018AB183748AB984B187
:10095000867E84B98BB18C638BB985B1867E85B96F
:100960005F9890E080E08230C1F08330C1F0813048
:1009700091F0249A579824B1267E24B94D9911C03C
:10098000880F991F880F991FFC01E35CFE4F81813E
:100990008C9381E00895239AEDCF209AEBCF579A5C
:1009A000E9CF4B9909C0880F991F880F991FFC0147
:1009B000E35CFE4F8081ECCF4C9909C0880F991FF2
:1009C000880F991FFC01E35CFE4F8281E1CF4A99B9
:1009D00009C0880F991F880F991FFC01E35CFE4F27
:1009E0008381D6CF01968430910509F0BCCF8FEF7B
:1009F0008C9380E008950F931F93CF93DF930F9212
:100A0000CDB7DEB78C01CE0101960E94A304898187
:100A10008F3F31F4809333018093320180E00DC029
:100A20009091330189130FC090913201891759F0C9
:100A3000F80180838093320181E00F90DF91CF91A4
:100A40001F910F91089580933301E8CFCF93DF93E7
:100A50000F92CDB7DEB7CE0101960E94FB0488232A
:100A600029F081E099819A3209F080E00F90DF91BE
:100A7000CF9108950E949D040E9473008AE090E047
:100A80000E9442020E945402FDCFAA1BBB1B51E1EF
:100A900007C0AA1FBB1FA617B70710F0A61BB70BEE
:100AA000881F991F5A95A9F780959095BC01CD0193
:100AB000089597FB072E16F4009407D077FD09D010
:100AC0000E94450507FC05D03EF4909581959F4F07
:100AD0000895709561957F4F0895CF92DF92EF92C0
:100AE000FF92CF93DF93CDB7DEB72A970FB6F89476
:100AF000DEBF0FBECDBF89879A87A985BA852D91A4
:100B00003D914D915C9129833A834B835C83232BE8
:100B1000242B252B41F424E239ED4BE557E02983C2
:100B20003A834B835C8369817A818B819C812DE13F
:100B300033EF41E050E00E94840869017A01A7EA9E
:100B4000B1E49B01AC010E94A30869837A838B8383
:100B50009C83ACEEB4EFA70196010E94B1089B0103
:100B6000AC0189819A81AB81BC81820F931FA41F44
:100B7000B51FB7FF03C00197A109B048E985FA8501
:100B800080839183A283B3839F772A960FB6F894CC
:100B9000DEBF0FBECDBFDF91CF91FF90EF90DF9012
:100BA000CF9008950E946D05089584E391E00E941E
:100BB0006D050895B0E0A0E0809334019093350175
:100BC000A0933601B09337010895AEE0B0E0EBEEAC
:100BD000F5E00C94C4080D891E8986E08C831A8385
:100BE00009838FEF9FE79E838D83AE01475E5F4F42
:100BF0006F89788DCE0101960E9408062F81388575
:100C0000020F131FF80110822E96E4E00C94E00806
:100C1000AFE0B0E0EEE0F6E00C94B6087C013B01FA
:100C20008A01DC0117961C921E92169713968C91DE
:100C300081FFC3C19AE0292EFE0131964F01D701F1
:100C400013969C91F30193FD859193FF81913F0150
:100C5000882309F448C1853239F493FD859193FFC7
:100C600081913F01853229F4B70190E00E94F60797
:100C7000E6CFB12C412C512CBFE1B51538F08B32A9
:100C800009F188F4803201F1833221F157FC3AC036
:100C900020ED280F2A3040F556FE1FC0B29C200DD3
:100CA0001124B22E06C08D3291F0803379F768940A
:100CB00050F8F30193FD859193FF81913F018111DC
:100CC000DBCF20C0689451F8689452F8F2CF689452
:100CD00053F8EFCF689454F8ECCF429C200D1124C8
:100CE000422E689455F8E5CF8E3229F456FCFBC0AD
:100CF000689456F8DECF8C3619F4689457F8D9CF3B
:100D00008836B9F2982F9F7D95549330C0F0833682
:100D1000A1F18337C1F1833509F05BC0D801CD90D3
:100D2000DD908D016B2D70E056FC02C06FEF7FEF00
:100D3000C6010E94E0075C01689457F80AC00C5F86
:100D40001F4FEFE3E983AA24A394B12C6401E89434
:100D500057F853FC04C04A141B0409F018F5342C4E
:100D6000A114B10431F5332009F469CFB70180E251
:100D700090E00E94F6073A94F6CFD8018C918983CF
:100D80000E5F1F4FE0CFF801C190D1908F016B2D06
:100D900070E056FC02C06FEF7FEFC6010E94EB07C8
:100DA0005C01D5CFB70180E290E00E94F6074A943B
:100DB000D2CFF60157FC859157FE81916F01B701A3
:100DC00090E00E94F60731103A94B1E0AB1AB108F6
:100DD000C7CF843619F0893609F074C0F80157FE80
:100DE0006AC061917191819191918F01E52DEF76AA
:100DF000DE2E97FF09C090958095709561957F4F85
:100E00008F4F9F4F6894D7F82AE030E0A4010E94EA
:100E10002608C82EC818AC2C5D2CD6FE0CC0E89451
:100E200050F8CB1440F4D4FE05C0D2FC03C05D2DB5
:100E30005E7E552EAB2C54FE98C0FE01EC0DF11DCC
:100E40008081803309F08AC0652D697E562E752D0C
:100E50007870372E53FC98C050FE92C0BC2CA4145E
:100E600018F44C0CB42CBA1854FE94C0B70180E3AB
:100E700090E00E94F60752FE09C088E790E051FE1C
:100E800002C088E590E0B7010E94F607CB1408F491
:100E90008DC0CA94D12C8FEFC81AD80AC80CD91C9F
:100EA000D6018E916D01B70190E00E94F6078C1477
:100EB0009D04B1F758CF61917191072E000C880BFA
:100EC000990B93CFD52CE894D4F82AE030E08537FD
:100ED00039F1F52DF97FDF2E8037A9F058F48835E8
:100EE000A9F08F36D9F0F701868197812F96E2E13C
:100EF0000C94D2088837B9F7D4FE02C06894D2F8AF
:100F000020E130E00DC06894D4F8F6CF54FE03C061
:100F10002F2F2660D22E20E132E002C028E030E000
:100F2000F801D7FE15C041915191619171914C87A3
:100F30005D876E877F878F01A4016C857D858E8597
:100F40009F850E942608C82EC818E894D7F863CF5A
:100F500081919191AC0170E060E0E9CF52FC02C058
:100F6000A39475CFA394A39472CF852D867809F4AA
:100F70006ECFF6CFB70180E290E00E94F607A3940F
:100F8000A414C0F3312C70CF342C3A18A41408F4F4
:100F90006BCFF8CF852D867809F478CF8BE251FEA0
:100FA00080E257FC8DE2B70190E06ECFB70180E39D
:100FB00090E00E94F607BA9469CF8FEF9FEF96CF2B
:100FC000FC010590615070400110D8F78095909514
:100FD0008E0F9F1F0895FC01615070400190011019
:100FE000D8F7809590958E0F9F1F08950F931F93AC
:100FF000CF93DF93182F092FEB018B8181FD09C05F
:101000001FEF0FEF812F902FDF91CF911F910F9145
:10101000089582FF14C02E813F818C819D81281705
:1010200039073CF4E881F981CF01019699838883DF
:1010300010838E819F8101969F838E83E3CFE88505
:10104000F985812F0995892BA1F3DACFFA01AA2717
:10105000283051F1203181F1E8946F936E7F6E5FFB
:101060007F4F8F4F9F4FAF4FB1E03ED0B4E03CD0A9
:10107000670F781F891F9A1FA11D680F791F8A1F8C
:10108000911DA11D6A0F711D811D911DA11D20D0F3
:1010900009F468943F912AE0269F11243019305DAD
:1010A0003193DEF6CF010895462F4770405D41939E
:1010B000B3E00FD0C9F7F6CF462F4F70405D4A33EB
:1010C00018F0495D31FD4052419302D0A9F7EACFB3
:1010D000B4E0A6959795879577956795BA95C9F7E2
:1010E00000976105710508959B01AC010A2E0694D5
:1010F0005795479537952795BA95C9F7620F731F8E
:10110000841F951FA01D0895052E97FB1EF40094C3
:101110000E949B0857FD07D00E94ED0807FC03D0F2
:101120004EF40C949B0850954095309521953F4F77
:101130004F4F5F4F089590958095709561957F4FC3
:101140008F4F9F4F08950E940F09A59F900DB49F48
:10115000900DA49F800D911D11240895B7FF0C944C
:10116000A3080E94A308821B930B08952F923F921D
:101170004F925F926F927F928F929F92AF92BF92A7
:10118000CF92DF92EF92FF920F931F93CF93DF9353
:10119000CDB7DEB7CA1BDB0B0FB6F894DEBF0FBEB0
:1011A000CDBF09942A88398848885F846E847D84FD
:1011B0008C849B84AA84B984C884DF80EE80FD80FF
:1011C0000C811B81AA81B981CE0FD11D0FB6F89475
:1011D000DEBF0FBECDBFED010895A1E21A2EAA1BFE
:1011E000BB1BFD010DC0AA1FBB1FEE1FFF1FA217D7
:1011F000B307E407F50720F0A21BB30BE40BF50BD4
:10120000661F771F881F991F1A9469F7609570955C
:10121000809590959B01AC01BD01CF010895A29FDF
:10122000B001B39FC001A39F700D811D1124911DBA
:10123000B29F700D811D1124911D0895F894FFCF68
:101240008E0194019A01A001A601AC01B201B8017E
:10125000BE01C401CA01D001D601DC01E201E801EE
:10126000EE01F401FA01000206020C021202180259
:101270001E02FFFF010000000000000000313233B9
:101280004134353642373839432A302344272A2718
:10129000207061726120696E69636961720020204B
:1012A0002020202020202020202020005669637448
:1012B0006F72696121005469656D706F3A20002575
:1012C00064006D7300446572726F74612100417235
:1012D000626F6C00426F746F6E004344794D43003F
:1012E000436C61764500466163696C0047616661E5
:1012F0007300486F6A6173004C6942726F004C6101
:101300006E7A61004E6965766500506552726F00B5
:101310005065634553005069416E6F005072594BE0
:10132000650052554544610053455249450053619B
:101330006C55640053616C75640053696C6C61009A
:101340005465636C610056616C6F7200566572641F
:101350006500596E48527A006841526444007369CE
:041360006C6C610050
:00000001FF
