S01200006D6963726F63686970312E7372656323
S11300000C9434000C9449000C9449000C9449005D
S11300100C9449000C9449000C9449000C94490038
S11300200C9449000C9449000C9449000C94490028
S11300300C9449000C9449000C9449000C94490018
S11300400C9449000C9449000C9449000C94490008
S11300500C9449000C9449000C9449000C944900F8
S11300600C9449000C94490011241FBECFEFD8E032
S1130070DEBFCDBF11E0A0E0B1E0E2E6F1E002C0F6
S113008005900D92A231B107D9F70E944B000C9450
S1130090AF000C9400008CEF87B988B1836088B9F5
S11300A08FEF8AB983E084B990E080E0309916C07C
S11300B021E0280F8BEA289F812D11248695982F03
S11300C0990F890F281B822F2FEF31EE44E0215026
S11300D030404040E1F700C0000090E031990FC08B
S11300E0282F30E02F5F3F4F20FF03C045B1486009
S11300F045B921FF0AC025B1206125B906C025B143
S1130100277F25B925B12F7E25B9811109C0E92F93
S1130110F0E0E05FFE4F20812BB99F5F917015C026
S1130120813049F4E92FF0E0E85FFE4F20812BB9DC
S11301309F5F97700AC0823041F4E92FF0E0E050ED
S1130140FF4F20812BB99F5F97702FEF31EE44E072
S1130150215030404040E1F700C00000A7CFF894A0
S1050160FFCFCB
S1130162800140022004100801020408102040808B
S105017255AA88
S9030000FC
