:100000000C9434000C9449000C9449000C94490061
:100010000C9449000C9449000C9449000C9449003C
:100020000C9449000C9449000C9449000C9449002C
:100030000C9449000C9449000C9449000C9449001C
:100040000C9449000C9449000C9449000C9449000C
:100050000C9449000C9449000C9449000C944900FC
:100060000C9449000C94490011241FBECFEFD8E036
:10007000DEBFCDBF11E0A0E0B1E0E2E6F1E002C0FA
:1000800005900D92A231B107D9F70E944B000C9454
:10009000AF000C9400008CEF87B98FEF8AB990E025
:1000A00080E0309B16C091E0980F8BEA989F812DDD
:1000B00011248695282F220F820F981B892F2FEF4E
:1000C00031EE44E0215030404040E1F700C00000F4
:1000D00090E0319B14C080FF03C025B1286025B992
:1000E00081FF03C025B1206125B92FEF31EE44E037
:1000F000215030404040E1F700C0000006C025B16B
:10010000277F25B925B12F7E25B9811109C0E92F97
:10011000F0E0E05FFE4F20812BB99F5F917015C02A
:10012000813049F4E92FF0E0E85FFE4F20812BB9E0
:100130009F5F97700AC0823041F4E92FF0E0E050F1
:10014000FF4F20812BB99F5F97702FEF31EE44E076
:10015000215030404040E1F700C00000A2CFF894A9
:02016000FFCFCF
:10016200800140022004100801020408102040808F
:0201720055AA8C
:00000001FF
