:100000000C9434000C9449000C9449000C94490061
:100010000C9449000C9449000C9449000C9449003C
:100020000C9449000C9449000C9449000C9449002C
:100030000C9449000C9449000C9449000C9449001C
:100040000C9449000C9449000C9449000C9449000C
:100050000C9449000C9449000C9449000C944900FC
:100060000C9449000C94490011241FBECFEFD8E036
:10007000DEBFCDBF11E0A0E0B1E0E4E9F1E002C0F5
:1000800005900D92A031B107D9F70E944B000C9456
:10009000C8000C940000CF93DF93CDB7DEB7629712
:1000A0000FB6F894DEBF0FBECDBF8CEF87B98FEFD0
:1000B0008AB985E589838AEA8A8388E0E0E0F1E00D
:1000C000DE01139601900D928A95E1F788E0E8E051
:1000D000F1E0DE011B9601900D928A95E1F790E028
:1000E00080E0309B16C091E0980F8BEA989F812D9D
:1000F00011248695282F220F820F981B892F2FEF0E
:1001000033EC49E0215030404040E1F700C00000AE
:1001100090E0319B07C025B1286025B925B1286042
:1001200025B906C025B1277F25B925B1277F25B977
:1001300081110BC0E1E0F0E0EC0FFD1FE90FF11DB4
:1001400020812BB99F5F917019C0813059F4E3E091
:10015000F0E0EC0FFD1FE90FF11D20812BB99F5F2F
:1001600097700CC0823051F4EBE0F0E0EC0FFD1F13
:10017000E90FF11D20812BB99F5F97702FEF31EEB2
:1001800044E0215030404040E1F700C00000A9CFDA
:04019000F894FFCF11
:10019400010204081020408080014002200410085D
:00000001FF
